{
  "contractName": "GatewayContract",
  "abi": [
    {
      "constant": true,
      "inputs": [],
      "name": "owner",
      "outputs": [
        {
          "name": "",
          "type": "address"
        }
      ],
      "payable": false,
      "stateMutability": "view",
      "type": "function"
    },
    {
      "inputs": [],
      "payable": false,
      "stateMutability": "nonpayable",
      "type": "constructor"
    },
    {
      "anonymous": false,
      "inputs": [
        {
          "indexed": false,
          "name": "sender",
          "type": "address"
        },
        {
          "indexed": false,
          "name": "device",
          "type": "address"
        }
      ],
      "name": "NewAuthorizationRequest",
      "type": "event"
    },
    {
      "anonymous": false,
      "inputs": [
        {
          "indexed": false,
          "name": "sender",
          "type": "address"
        },
        {
          "indexed": false,
          "name": "device",
          "type": "address"
        },
        {
          "indexed": false,
          "name": "requester",
          "type": "address"
        }
      ],
      "name": "NewAuthorizationApproved",
      "type": "event"
    },
    {
      "constant": false,
      "inputs": [
        {
          "name": "device",
          "type": "address"
        }
      ],
      "name": "requestAuthorization",
      "outputs": [],
      "payable": false,
      "stateMutability": "nonpayable",
      "type": "function"
    },
    {
      "constant": false,
      "inputs": [
        {
          "name": "token",
          "type": "bytes32"
        },
        {
          "name": "device",
          "type": "address"
        },
        {
          "name": "requester",
          "type": "address"
        }
      ],
      "name": "approveAuthorization",
      "outputs": [],
      "payable": false,
      "stateMutability": "nonpayable",
      "type": "function"
    }
  ],
  "bytecode": "0x608060405234801561001057600080fd5b50336000806101000a81548173ffffffffffffffffffffffffffffffffffffffff021916908373ffffffffffffffffffffffffffffffffffffffff1602179055506103af806100606000396000f3fe608060405234801561001057600080fd5b50600436106100415760003560e01c806376c51f02146100465780638da5cb5b1461008a578063bfff11b3146100d4575b600080fd5b6100886004803603602081101561005c57600080fd5b81019080803573ffffffffffffffffffffffffffffffffffffffff169060200190929190505050610142565b005b6100926101dc565b604051808273ffffffffffffffffffffffffffffffffffffffff1673ffffffffffffffffffffffffffffffffffffffff16815260200191505060405180910390f35b610140600480360360608110156100ea57600080fd5b8101908080359060200190929190803573ffffffffffffffffffffffffffffffffffffffff169060200190929190803573ffffffffffffffffffffffffffffffffffffffff169060200190929190505050610201565b005b7f6a584e6dedb5ccdfdefcfe680c2c83f1fad76c714181154290d14541a40702983382604051808373ffffffffffffffffffffffffffffffffffffffff1673ffffffffffffffffffffffffffffffffffffffff1681526020018273ffffffffffffffffffffffffffffffffffffffff1673ffffffffffffffffffffffffffffffffffffffff1681526020019250505060405180910390a150565b6000809054906101000a900473ffffffffffffffffffffffffffffffffffffffff1681565b6000809054906101000a900473ffffffffffffffffffffffffffffffffffffffff1673ffffffffffffffffffffffffffffffffffffffff163373ffffffffffffffffffffffffffffffffffffffff16146102c3576040517f08c379a000000000000000000000000000000000000000000000000000000000815260040180806020018281038252601e8152602001807f6f6e6c7920666f722047617465776179436f6e7472616374206f776e6572000081525060200191505060405180910390fd5b6000600160008581526020019081526020016000209050828160000160006101000a81548173ffffffffffffffffffffffffffffffffffffffff021916908373ffffffffffffffffffffffffffffffffffffffff160217905550818160010160006101000a81548173ffffffffffffffffffffffffffffffffffffffff021916908373ffffffffffffffffffffffffffffffffffffffff16021790555060018160010160146101000a81548160ff0219169083151502179055505050505056fea165627a7a72305820815b15fb95ce64eed991d4a32a84b31a1b08e183adaf5b4bf99a6fcce2c64e3d0029",
  "source": "pragma solidity >=0.4.25 <0.6.0;\n\ncontract GatewayContract {\n    struct Authorization {\n        address device;\n\t\taddress requester;\n        bool isValue;\n\t}\n\n    address public owner;\n    // key: hash of token, value: authorization detail\n    mapping (bytes32 => Authorization) trustedTokens;\n\n    event NewAuthorizationRequest(address sender, address device);\n    event NewAuthorizationApproved(address sender, address device, address requester);\n\n    modifier onlyOwner() {\n        require(msg.sender == owner, 'only for GatewayContract owner');\n        _;\n    }\n\n    constructor() public {\n\t\towner = msg.sender;\n\t}\n\n    function requestAuthorization(address device) public {\n        emit NewAuthorizationRequest(msg.sender, device);\n    }\n\n    function approveAuthorization(bytes32 token, address device, address requester) public\n    onlyOwner() {\n        Authorization storage a = trustedTokens[token];\n        a.device = device;\n        a.requester = requester;\n        a.isValue = true;\n\n        //emit NewPayloadAdded(msg.sender, IPFSHash);\n    }\n}",
  "sourcePath": "/home/mrkazawa/Projects/iot_domain_auth/contracts/GatewayContract.sol",
  "compiler": {
    "name": "solc",
    "version": "0.5.8+commit.23d335f2.Emscripten.clang"
  },
  "schemaVersion": "3.0.11",
  "updatedAt": "2019-08-28T04:29:20.368Z",
  "devdoc": {
    "methods": {}
  },
  "userdoc": {
    "methods": {}
  }
}