{
  "contractName": "ISPContract",
  "abi": [
    {
      "constant": true,
      "inputs": [],
      "name": "owner",
      "outputs": [
        {
          "name": "",
          "type": "address"
        }
      ],
      "payable": false,
      "stateMutability": "view",
      "type": "function"
    },
    {
      "inputs": [],
      "payable": false,
      "stateMutability": "nonpayable",
      "type": "constructor"
    },
    {
      "constant": false,
      "inputs": [
        {
          "name": "contractAddress",
          "type": "address"
        },
        {
          "name": "IPFSHash",
          "type": "bytes32"
        },
        {
          "name": "gateway",
          "type": "address"
        }
      ],
      "name": "verifyGateway",
      "outputs": [],
      "payable": false,
      "stateMutability": "nonpayable",
      "type": "function"
    },
    {
      "constant": true,
      "inputs": [
        {
          "name": "contractAddress",
          "type": "address"
        },
        {
          "name": "IPFSHash",
          "type": "bytes32"
        }
      ],
      "name": "isPayloadValid",
      "outputs": [
        {
          "name": "",
          "type": "bool"
        }
      ],
      "payable": false,
      "stateMutability": "view",
      "type": "function"
    }
  ],
  "bytecode": "0x608060405234801561001057600080fd5b50336000806101000a81548173ffffffffffffffffffffffffffffffffffffffff021916908373ffffffffffffffffffffffffffffffffffffffff16021790555061047f806100606000396000f3fe608060405234801561001057600080fd5b50600436106100415760003560e01c80638da5cb5b146100465780639fc5791714610090578063ff4ab04d146100fe575b600080fd5b61004e610164565b604051808273ffffffffffffffffffffffffffffffffffffffff1673ffffffffffffffffffffffffffffffffffffffff16815260200191505060405180910390f35b6100fc600480360360608110156100a657600080fd5b81019080803573ffffffffffffffffffffffffffffffffffffffff16906020019092919080359060200190929190803573ffffffffffffffffffffffffffffffffffffffff169060200190929190505050610189565b005b61014a6004803603604081101561011457600080fd5b81019080803573ffffffffffffffffffffffffffffffffffffffff169060200190929190803590602001909291905050506102f5565b604051808215151515815260200191505060405180910390f35b6000809054906101000a900473ffffffffffffffffffffffffffffffffffffffff1681565b6000809054906101000a900473ffffffffffffffffffffffffffffffffffffffff1673ffffffffffffffffffffffffffffffffffffffff163373ffffffffffffffffffffffffffffffffffffffff161461024b576040517f08c379a000000000000000000000000000000000000000000000000000000000815260040180806020018281038252601a8152602001807f6f6e6c7920666f7220495350436f6e7472616374206f776e657200000000000081525060200191505060405180910390fd5b60008390508073ffffffffffffffffffffffffffffffffffffffff166333cb452d84846040518363ffffffff1660e01b8152600401808381526020018273ffffffffffffffffffffffffffffffffffffffff1673ffffffffffffffffffffffffffffffffffffffff16815260200192505050600060405180830381600087803b1580156102d757600080fd5b505af11580156102eb573d6000803e3d6000fd5b5050505050505050565b60008060009054906101000a900473ffffffffffffffffffffffffffffffffffffffff1673ffffffffffffffffffffffffffffffffffffffff163373ffffffffffffffffffffffffffffffffffffffff16146103b9576040517f08c379a000000000000000000000000000000000000000000000000000000000815260040180806020018281038252601a8152602001807f6f6e6c7920666f7220495350436f6e7472616374206f776e657200000000000081525060200191505060405180910390fd5b60008390508073ffffffffffffffffffffffffffffffffffffffff1663e98f4ec2846040518263ffffffff1660e01b81526004018082815260200191505060206040518083038186803b15801561040f57600080fd5b505afa158015610423573d6000803e3d6000fd5b505050506040513d602081101561043957600080fd5b81019080805190602001909291905050509150509291505056fea165627a7a723058208980877c8a58625c66531e86506c5d6b5a46120e3607c767aa8259c586994ef40029",
  "source": "pragma solidity >=0.4.25 <0.6.0;\n\ncontract ISPContract {\n    address public owner;\n\n    constructor() public {\n\t\towner = msg.sender;\n\t}\n\n    modifier onlyOwner() {\n        require(msg.sender == owner, 'only for ISPContract owner');\n        _;\n    }\n\n    function verifyGateway(address contractAddress, bytes32 IPFSHash, address gateway) public\n    onlyOwner() {\n        RegistryContract RC = RegistryContract(contractAddress);\n        RC.verifyAuthNGateway(IPFSHash, gateway);\n    }\n\n    function isPayloadValid(address contractAddress, bytes32 IPFSHash) public view\n    onlyOwner()\n    returns (bool) {\n        RegistryContract RC = RegistryContract(contractAddress);\n        return RC.isValidPayloadForVerifier(IPFSHash);\n    }\n}\n\ninterface RegistryContract {\n   function verifyAuthNGateway(bytes32 IPFSHash, address gateway) external;\n   function isValidPayloadForVerifier(bytes32 IPFSHash) external view returns (bool);\n}",
  "sourcePath": "/home/mrkazawa/Projects/iot_domain_auth/contracts/ISPContract.sol",
  "compiler": {
    "name": "solc",
    "version": "0.5.8+commit.23d335f2.Emscripten.clang"
  },
  "schemaVersion": "3.0.11",
  "updatedAt": "2019-11-08T09:02:40.319Z",
  "devdoc": {
    "methods": {}
  },
  "userdoc": {
    "methods": {}
  }
}