{
  "contractName": "Network",
  "abi": [
    {
      "constant": true,
      "inputs": [],
      "name": "roosterAddress",
      "outputs": [
        {
          "name": "",
          "type": "address"
        }
      ],
      "payable": false,
      "stateMutability": "view",
      "type": "function"
    },
    {
      "constant": true,
      "inputs": [],
      "name": "owner",
      "outputs": [
        {
          "name": "",
          "type": "address"
        }
      ],
      "payable": false,
      "stateMutability": "view",
      "type": "function"
    },
    {
      "inputs": [],
      "payable": false,
      "stateMutability": "nonpayable",
      "type": "constructor"
    },
    {
      "constant": false,
      "inputs": [
        {
          "name": "addr",
          "type": "address"
        }
      ],
      "name": "setRoosterAddress",
      "outputs": [],
      "payable": false,
      "stateMutability": "nonpayable",
      "type": "function"
    },
    {
      "constant": false,
      "inputs": [
        {
          "name": "IPFS_hash",
          "type": "uint256"
        }
      ],
      "name": "doAuthN",
      "outputs": [
        {
          "name": "",
          "type": "uint256"
        }
      ],
      "payable": false,
      "stateMutability": "nonpayable",
      "type": "function"
    }
  ],
  "bytecode": "0x608060405234801561001057600080fd5b50336000806101000a81548173ffffffffffffffffffffffffffffffffffffffff021916908373ffffffffffffffffffffffffffffffffffffffff1602179055506102f5806100606000396000f3fe608060405234801561001057600080fd5b506004361061004c5760003560e01c80635f20fa1d14610051578063642375e2146100935780636d4e9da6146100d75780638da5cb5b14610121575b600080fd5b61007d6004803603602081101561006757600080fd5b810190808035906020019092919050505061016b565b6040518082815260200191505060405180910390f35b6100d5600480360360208110156100a957600080fd5b81019080803573ffffffffffffffffffffffffffffffffffffffff169060200190929190505050610178565b005b6100df61027e565b604051808273ffffffffffffffffffffffffffffffffffffffff1673ffffffffffffffffffffffffffffffffffffffff16815260200191505060405180910390f35b6101296102a4565b604051808273ffffffffffffffffffffffffffffffffffffffff1673ffffffffffffffffffffffffffffffffffffffff16815260200191505060405180910390f35b6000606482019050919050565b6000809054906101000a900473ffffffffffffffffffffffffffffffffffffffff1673ffffffffffffffffffffffffffffffffffffffff163373ffffffffffffffffffffffffffffffffffffffff161461023a576040517f08c379a000000000000000000000000000000000000000000000000000000000815260040180806020018281038252601a8152602001807f6f6e6c7920746865206f776e65722063616e20646f207468697300000000000081525060200191505060405180910390fd5b80600160006101000a81548173ffffffffffffffffffffffffffffffffffffffff021916908373ffffffffffffffffffffffffffffffffffffffff16021790555050565b600160009054906101000a900473ffffffffffffffffffffffffffffffffffffffff1681565b6000809054906101000a900473ffffffffffffffffffffffffffffffffffffffff168156fea165627a7a72305820b4972d7490801f2ee99b14e9da12315b4370f03e4e3914d1bd020ffe02c6f46b0029",
  "source": "pragma solidity >=0.4.25 <0.6.0;\n\ncontract Network {\n    address public owner;\n    address public roosterAddress;\n\n    constructor() public {\n\t\towner = msg.sender;\n\t}\n\n    modifier onlyOwner() {\n        require(msg.sender == owner, \"only the owner can do this\");\n        _;\n    }\n\n    modifier onlyRooster() {\n        require(msg.sender == roosterAddress, \"only the rooster contract can do this\");\n        _;\n    }\n\n    function setRoosterAddress(address addr) public onlyOwner {\n        roosterAddress = addr;\n    }\n\n    function doAuthN(uint IPFS_hash) public returns(uint) {\n        // TODO: Add only rooster verifier\n        // check if the message sender is Rooster Contract\n        // notify the ISP authentication service by emmiting event\n        return IPFS_hash + 100;\n    }\n}",
  "sourcePath": "/home/mrkazawa/Projects/domain_authn/contracts/Network.sol",
  "compiler": {
    "name": "solc",
    "version": "0.5.8+commit.23d335f2.Emscripten.clang"
  },
  "schemaVersion": "3.0.11",
  "updatedAt": "2019-07-22T06:02:46.096Z",
  "devdoc": {
    "methods": {}
  },
  "userdoc": {
    "methods": {}
  }
}