{
  "contractName": "Owner",
  "abi": [
    {
      "constant": true,
      "inputs": [],
      "name": "owner",
      "outputs": [
        {
          "name": "",
          "type": "address"
        }
      ],
      "payable": false,
      "stateMutability": "view",
      "type": "function"
    },
    {
      "inputs": [],
      "payable": false,
      "stateMutability": "nonpayable",
      "type": "constructor"
    },
    {
      "constant": false,
      "inputs": [
        {
          "name": "addr",
          "type": "address"
        }
      ],
      "name": "someAction",
      "outputs": [
        {
          "name": "",
          "type": "uint256"
        }
      ],
      "payable": false,
      "stateMutability": "nonpayable",
      "type": "function"
    }
  ],
  "bytecode": "0x608060405234801561001057600080fd5b50336000806101000a81548173ffffffffffffffffffffffffffffffffffffffff021916908373ffffffffffffffffffffffffffffffffffffffff1602179055506101cb806100606000396000f3fe608060405234801561001057600080fd5b50600436106100365760003560e01c80638da5cb5b1461003b578063fba9cea914610085575b600080fd5b6100436100dd565b604051808273ffffffffffffffffffffffffffffffffffffffff1673ffffffffffffffffffffffffffffffffffffffff16815260200191505060405180910390f35b6100c76004803603602081101561009b57600080fd5b81019080803573ffffffffffffffffffffffffffffffffffffffff169060200190929190505050610102565b6040518082815260200191505060405180910390f35b6000809054906101000a900473ffffffffffffffffffffffffffffffffffffffff1681565b6000808290508073ffffffffffffffffffffffffffffffffffffffff16630ff4c91660646040518263ffffffff1660e01b815260040180828152602001915050602060405180830381600087803b15801561015c57600080fd5b505af1158015610170573d6000803e3d6000fd5b505050506040513d602081101561018657600080fd5b810190808051906020019092919050505091505091905056fea165627a7a723058208477e4e8c60434b1a6ab67831d3a760531a879cfca58413753ff8f27beb508030029",
  "source": "pragma solidity >=0.4.25 <0.6.0;\n\ncontract Owner {\n    address public owner;\n\n    constructor() public {\n\t\towner = msg.sender;\n\t}\n\n    modifier restricted() {\n        if (msg.sender == owner) _;\n    }\n\n    function someAction(address addr) public returns(uint) {\n        Broker c = Broker(addr);\n        return c.getValue(100);\n    }\n\n    /*\n    function beginAuthGateway(uint IPFS_hash, address rooster_address, address ISP_AS_address) public returns(uint) {\n        Broker c = Broker(rooster_address);\n        return c.authNGateway(IPFS_hash, ISP_AS_address);\n    }*/\n}\n\ninterface Broker {\n    function getValue(uint initialValue) external returns(uint);\n    //function authNGateway(uint IPFS_hash, address ISP_AS_address) external returns(uint) {\n}",
  "sourcePath": "/home/mrkazawa/Projects/domain_authn/contracts/Owner.sol",
  "compiler": {
    "name": "solc",
    "version": "0.5.8+commit.23d335f2.Emscripten.clang"
  },
  "schemaVersion": "3.0.11",
  "updatedAt": "2019-07-22T06:02:46.098Z",
  "devdoc": {
    "methods": {}
  },
  "userdoc": {
    "methods": {}
  }
}