{
  "contractName": "RegistryContract",
  "abi": [
    {
      "constant": true,
      "inputs": [
        {
          "name": "",
          "type": "address"
        }
      ],
      "name": "entities",
      "outputs": [
        {
          "name": "isValue",
          "type": "bool"
        },
        {
          "name": "isRevoked",
          "type": "bool"
        }
      ],
      "payable": false,
      "stateMutability": "view",
      "type": "function"
    },
    {
      "constant": true,
      "inputs": [],
      "name": "owner",
      "outputs": [
        {
          "name": "",
          "type": "address"
        }
      ],
      "payable": false,
      "stateMutability": "view",
      "type": "function"
    },
    {
      "inputs": [],
      "payable": false,
      "stateMutability": "nonpayable",
      "type": "constructor"
    },
    {
      "anonymous": false,
      "inputs": [
        {
          "indexed": false,
          "name": "sender",
          "type": "address"
        }
      ],
      "name": "NewEntityAdded",
      "type": "event"
    },
    {
      "anonymous": false,
      "inputs": [
        {
          "indexed": false,
          "name": "sender",
          "type": "address"
        }
      ],
      "name": "EntityRevoked",
      "type": "event"
    },
    {
      "constant": false,
      "inputs": [],
      "name": "storeNewEntity",
      "outputs": [],
      "payable": false,
      "stateMutability": "nonpayable",
      "type": "function"
    },
    {
      "constant": false,
      "inputs": [],
      "name": "revokeEntity",
      "outputs": [],
      "payable": false,
      "stateMutability": "nonpayable",
      "type": "function"
    },
    {
      "constant": true,
      "inputs": [
        {
          "name": "entity",
          "type": "address"
        }
      ],
      "name": "isEntityRevoked",
      "outputs": [
        {
          "name": "",
          "type": "bool"
        }
      ],
      "payable": false,
      "stateMutability": "view",
      "type": "function"
    }
  ],
  "bytecode": "0x608060405234801561001057600080fd5b50336000806101000a81548173ffffffffffffffffffffffffffffffffffffffff021916908373ffffffffffffffffffffffffffffffffffffffff16021790555061065c806100606000396000f3fe608060405234801561001057600080fd5b50600436106100575760003560e01c80631d8ee48a1461005c57806378111f31146100c35780638706e075146100cd5780638da5cb5b14610129578063ceeafbef14610173575b600080fd5b61009e6004803603602081101561007257600080fd5b81019080803573ffffffffffffffffffffffffffffffffffffffff16906020019092919050505061017d565b6040518083151515158152602001821515151581526020019250505060405180910390f35b6100cb6101bb565b005b61010f600480360360208110156100e357600080fd5b81019080803573ffffffffffffffffffffffffffffffffffffffff169060200190929190505050610363565b604051808215151515815260200191505060405180910390f35b6101316103c3565b604051808273ffffffffffffffffffffffffffffffffffffffff1673ffffffffffffffffffffffffffffffffffffffff16815260200191505060405180910390f35b61017b6103e8565b005b60016020528060005260406000206000915090508060000160009054906101000a900460ff16908060000160019054906101000a900460ff16905082565b33600160008273ffffffffffffffffffffffffffffffffffffffff1673ffffffffffffffffffffffffffffffffffffffff16815260200190815260200160002060000160009054906101000a900460ff161561027f576040517f08c379a00000000000000000000000000000000000000000000000000000000081526004018080602001828103825260158152602001807f656e74697479206d757374206e6f74206578697374000000000000000000000081525060200191505060405180910390fd5b6000600160003373ffffffffffffffffffffffffffffffffffffffff1673ffffffffffffffffffffffffffffffffffffffff168152602001908152602001600020905060018160000160006101000a81548160ff02191690831515021790555060008160000160016101000a81548160ff0219169083151502179055507f8c93f4b845814132a0c803baf8cfc703d9c6ebcb1fabf63613e3a6e594ae573933604051808273ffffffffffffffffffffffffffffffffffffffff1673ffffffffffffffffffffffffffffffffffffffff16815260200191505060405180910390a15050565b600060011515600160008473ffffffffffffffffffffffffffffffffffffffff1673ffffffffffffffffffffffffffffffffffffffff16815260200190815260200160002060000160019054906101000a900460ff161515149050919050565b6000809054906101000a900473ffffffffffffffffffffffffffffffffffffffff1681565b33600160008273ffffffffffffffffffffffffffffffffffffffff1673ffffffffffffffffffffffffffffffffffffffff16815260200190815260200160002060000160009054906101000a900460ff166104ab576040517f08c379a00000000000000000000000000000000000000000000000000000000081526004018080602001828103825260118152602001807f656e74697479206d75737420657869737400000000000000000000000000000081525060200191505060405180910390fd5b33600160008273ffffffffffffffffffffffffffffffffffffffff1673ffffffffffffffffffffffffffffffffffffffff16815260200190815260200160002060000160019054906101000a900460ff161561056f576040517f08c379a00000000000000000000000000000000000000000000000000000000081526004018080602001828103825260178152602001807f656e74697479206d757374206e6f74207265766f6b656400000000000000000081525060200191505060405180910390fd5b60018060003373ffffffffffffffffffffffffffffffffffffffff1673ffffffffffffffffffffffffffffffffffffffff16815260200190815260200160002060000160016101000a81548160ff0219169083151502179055507f8690b3b66f3b2d8fb674d4b36f56d3c68fcbd17f32f16fb1adb6e54946662ffd33604051808273ffffffffffffffffffffffffffffffffffffffff1673ffffffffffffffffffffffffffffffffffffffff16815260200191505060405180910390a1505056fea165627a7a723058208e78571efb33f2778104c7d23020fccea640418f575b88b4ba22b44038f178ef0029",
  "source": "pragma solidity >=0.4.25 <0.6.0;\n\ncontract RegistryContract {\n    struct Identity {\n    bool isValue; // true when payload is stored\n    bool isRevoked; // true when it is revoked\n\t}\n\n  address public owner;\n  // key: address, value: Identity struct\n  mapping (address => Identity) public entities;\n\n  event NewEntityAdded(address sender);\n  event EntityRevoked(address sender);\n\n  modifier entityMustExist(address entity) {\n    require(entities[entity].isValue, \"entity must exist\");\n    _;\n  }\n\n  modifier entityMustNotExist(address entity) {\n    require(!entities[entity].isValue, \"entity must not exist\");\n    _;\n  }\n\n  modifier entityMustNotRevoked(address entity) {\n    require(!entities[entity].isRevoked, \"entity must not revoked\");\n    _;\n  }\n\n  constructor() public {\n\t\towner = msg.sender;\n\t}\n\n  function storeNewEntity() public\n  entityMustNotExist(msg.sender) {\n    Identity storage i = entities[msg.sender];\n    i.isValue = true;\n    i.isRevoked = false;\n\n    emit NewEntityAdded(msg.sender);\n  }\n\n  function revokeEntity() public\n  entityMustExist(msg.sender)\n  entityMustNotRevoked(msg.sender) {\n    entities[msg.sender].isRevoked = true;\n\n    emit EntityRevoked(msg.sender);\n  }\n\n  function isEntityRevoked(address entity) public view\n  returns (bool) {\n    return (entities[entity].isRevoked == true);\n  }\n}",
  "sourcePath": "/home/mrkazawa/Projects/auth_contract_use_case/contracts/RegistryContract.sol",
  "compiler": {
    "name": "solc",
    "version": "0.5.8+commit.23d335f2.Emscripten.clang"
  },
  "schemaVersion": "3.0.11",
  "updatedAt": "2019-11-26T03:01:33.774Z",
  "devdoc": {
    "methods": {}
  },
  "userdoc": {
    "methods": {}
  }
}