{
  "contractName": "RegistryContract",
  "abi": [
    {
      "constant": true,
      "inputs": [
        {
          "name": "",
          "type": "address"
        }
      ],
      "name": "entities",
      "outputs": [
        {
          "name": "isValue",
          "type": "bool"
        },
        {
          "name": "isRevoked",
          "type": "bool"
        }
      ],
      "payable": false,
      "stateMutability": "view",
      "type": "function"
    },
    {
      "constant": true,
      "inputs": [],
      "name": "owner",
      "outputs": [
        {
          "name": "",
          "type": "address"
        }
      ],
      "payable": false,
      "stateMutability": "view",
      "type": "function"
    },
    {
      "inputs": [],
      "payable": false,
      "stateMutability": "nonpayable",
      "type": "constructor"
    },
    {
      "anonymous": false,
      "inputs": [
        {
          "indexed": false,
          "name": "sender",
          "type": "address"
        }
      ],
      "name": "NewEntityAdded",
      "type": "event"
    },
    {
      "anonymous": false,
      "inputs": [
        {
          "indexed": false,
          "name": "sender",
          "type": "address"
        }
      ],
      "name": "EntityRevoked",
      "type": "event"
    },
    {
      "constant": false,
      "inputs": [],
      "name": "storeNewEntity",
      "outputs": [],
      "payable": false,
      "stateMutability": "nonpayable",
      "type": "function"
    },
    {
      "constant": false,
      "inputs": [],
      "name": "revokeEntity",
      "outputs": [],
      "payable": false,
      "stateMutability": "nonpayable",
      "type": "function"
    },
    {
      "constant": true,
      "inputs": [
        {
          "name": "entity",
          "type": "address"
        }
      ],
      "name": "isEntityRevoked",
      "outputs": [
        {
          "name": "",
          "type": "bool"
        }
      ],
      "payable": false,
      "stateMutability": "view",
      "type": "function"
    },
    {
      "constant": true,
      "inputs": [
        {
          "name": "entity",
          "type": "address"
        }
      ],
      "name": "isEntityExist",
      "outputs": [
        {
          "name": "",
          "type": "bool"
        }
      ],
      "payable": false,
      "stateMutability": "view",
      "type": "function"
    }
  ],
  "bytecode": "0x608060405234801561001057600080fd5b50336000806101000a81548173ffffffffffffffffffffffffffffffffffffffff021916908373ffffffffffffffffffffffffffffffffffffffff160217905550610723806100606000396000f3fe608060405234801561001057600080fd5b50600436106100625760003560e01c80631d8ee48a14610067578063605427ec146100ce57806378111f311461012a5780638706e075146101345780638da5cb5b14610190578063ceeafbef146101da575b600080fd5b6100a96004803603602081101561007d57600080fd5b81019080803573ffffffffffffffffffffffffffffffffffffffff1690602001909291905050506101e4565b6040518083151515158152602001821515151581526020019250505060405180910390f35b610110600480360360208110156100e457600080fd5b81019080803573ffffffffffffffffffffffffffffffffffffffff169060200190929190505050610222565b604051808215151515815260200191505060405180910390f35b610132610282565b005b6101766004803603602081101561014a57600080fd5b81019080803573ffffffffffffffffffffffffffffffffffffffff16906020019092919050505061042a565b604051808215151515815260200191505060405180910390f35b61019861048a565b604051808273ffffffffffffffffffffffffffffffffffffffff1673ffffffffffffffffffffffffffffffffffffffff16815260200191505060405180910390f35b6101e26104af565b005b60016020528060005260406000206000915090508060000160009054906101000a900460ff16908060000160019054906101000a900460ff16905082565b600060011515600160008473ffffffffffffffffffffffffffffffffffffffff1673ffffffffffffffffffffffffffffffffffffffff16815260200190815260200160002060000160009054906101000a900460ff161515149050919050565b33600160008273ffffffffffffffffffffffffffffffffffffffff1673ffffffffffffffffffffffffffffffffffffffff16815260200190815260200160002060000160009054906101000a900460ff1615610346576040517f08c379a00000000000000000000000000000000000000000000000000000000081526004018080602001828103825260158152602001807f656e74697479206d757374206e6f74206578697374000000000000000000000081525060200191505060405180910390fd5b6000600160003373ffffffffffffffffffffffffffffffffffffffff1673ffffffffffffffffffffffffffffffffffffffff168152602001908152602001600020905060018160000160006101000a81548160ff02191690831515021790555060008160000160016101000a81548160ff0219169083151502179055507f8c93f4b845814132a0c803baf8cfc703d9c6ebcb1fabf63613e3a6e594ae573933604051808273ffffffffffffffffffffffffffffffffffffffff1673ffffffffffffffffffffffffffffffffffffffff16815260200191505060405180910390a15050565b600060011515600160008473ffffffffffffffffffffffffffffffffffffffff1673ffffffffffffffffffffffffffffffffffffffff16815260200190815260200160002060000160019054906101000a900460ff161515149050919050565b6000809054906101000a900473ffffffffffffffffffffffffffffffffffffffff1681565b33600160008273ffffffffffffffffffffffffffffffffffffffff1673ffffffffffffffffffffffffffffffffffffffff16815260200190815260200160002060000160009054906101000a900460ff16610572576040517f08c379a00000000000000000000000000000000000000000000000000000000081526004018080602001828103825260118152602001807f656e74697479206d75737420657869737400000000000000000000000000000081525060200191505060405180910390fd5b33600160008273ffffffffffffffffffffffffffffffffffffffff1673ffffffffffffffffffffffffffffffffffffffff16815260200190815260200160002060000160019054906101000a900460ff1615610636576040517f08c379a00000000000000000000000000000000000000000000000000000000081526004018080602001828103825260178152602001807f656e74697479206d757374206e6f74207265766f6b656400000000000000000081525060200191505060405180910390fd5b60018060003373ffffffffffffffffffffffffffffffffffffffff1673ffffffffffffffffffffffffffffffffffffffff16815260200190815260200160002060000160016101000a81548160ff0219169083151502179055507f8690b3b66f3b2d8fb674d4b36f56d3c68fcbd17f32f16fb1adb6e54946662ffd33604051808273ffffffffffffffffffffffffffffffffffffffff1673ffffffffffffffffffffffffffffffffffffffff16815260200191505060405180910390a1505056fea165627a7a72305820161686025c9c5e72be1415abc6056a938181f8e284d7f2bbe7c462f6cfd1cae70029",
  "source": "pragma solidity >=0.4.25 <0.6.0;\n\ncontract RegistryContract {\n    struct Identity {\n    bool isValue; // true when payload is stored\n    bool isRevoked; // true when it is revoked\n\t}\n\n  address public owner;\n  // key: address, value: Identity struct\n  mapping (address => Identity) public entities;\n\n  event NewEntityAdded(address sender);\n  event EntityRevoked(address sender);\n\n  modifier entityMustExist(address entity) {\n    require(entities[entity].isValue, \"entity must exist\");\n    _;\n  }\n\n  modifier entityMustNotExist(address entity) {\n    require(!entities[entity].isValue, \"entity must not exist\");\n    _;\n  }\n\n  modifier entityMustNotRevoked(address entity) {\n    require(!entities[entity].isRevoked, \"entity must not revoked\");\n    _;\n  }\n\n  constructor() public {\n\t\towner = msg.sender;\n\t}\n\n  function storeNewEntity() public\n  entityMustNotExist(msg.sender) {\n    Identity storage i = entities[msg.sender];\n    i.isValue = true;\n    i.isRevoked = false;\n\n    emit NewEntityAdded(msg.sender);\n  }\n\n  function revokeEntity() public\n  entityMustExist(msg.sender)\n  entityMustNotRevoked(msg.sender) {\n    entities[msg.sender].isRevoked = true;\n\n    emit EntityRevoked(msg.sender);\n  }\n\n  function isEntityRevoked(address entity) public view\n  returns (bool) {\n    return (entities[entity].isRevoked == true);\n  }\n\n  function isEntityExist(address entity) public view\n  returns (bool) {\n    return (entities[entity].isValue == true);\n  }\n}",
  "sourcePath": "/home/mrkazawa/Projects/auth_contract_use_case/contracts/RegistryContract.sol",
  "compiler": {
    "name": "solc",
    "version": "0.5.8+commit.23d335f2.Emscripten.clang"
  },
  "schemaVersion": "3.0.11",
  "updatedAt": "2019-11-26T04:11:35.179Z",
  "devdoc": {
    "methods": {}
  },
  "userdoc": {
    "methods": {}
  }
}