{
  "contractName": "RegistryContract",
  "abi": [
    {
      "constant": true,
      "inputs": [
        {
          "name": "",
          "type": "address"
        }
      ],
      "name": "entities",
      "outputs": [
        {
          "name": "isValue",
          "type": "bool"
        },
        {
          "name": "isRevoked",
          "type": "bool"
        }
      ],
      "payable": false,
      "stateMutability": "view",
      "type": "function"
    },
    {
      "constant": true,
      "inputs": [],
      "name": "owner",
      "outputs": [
        {
          "name": "",
          "type": "address"
        }
      ],
      "payable": false,
      "stateMutability": "view",
      "type": "function"
    },
    {
      "inputs": [],
      "payable": false,
      "stateMutability": "nonpayable",
      "type": "constructor"
    },
    {
      "anonymous": false,
      "inputs": [
        {
          "indexed": false,
          "name": "sender",
          "type": "address"
        }
      ],
      "name": "NewEntityAdded",
      "type": "event"
    },
    {
      "constant": false,
      "inputs": [],
      "name": "storeNewEntity",
      "outputs": [],
      "payable": false,
      "stateMutability": "nonpayable",
      "type": "function"
    }
  ],
  "bytecode": "0x608060405234801561001057600080fd5b50336000806101000a81548173ffffffffffffffffffffffffffffffffffffffff021916908373ffffffffffffffffffffffffffffffffffffffff160217905550610338806100606000396000f3fe608060405234801561001057600080fd5b50600436106100415760003560e01c80631d8ee48a1461004657806378111f31146100ad5780638da5cb5b146100b7575b600080fd5b6100886004803603602081101561005c57600080fd5b81019080803573ffffffffffffffffffffffffffffffffffffffff169060200190929190505050610101565b6040518083151515158152602001821515151581526020019250505060405180910390f35b6100b561013f565b005b6100bf6102e7565b604051808273ffffffffffffffffffffffffffffffffffffffff1673ffffffffffffffffffffffffffffffffffffffff16815260200191505060405180910390f35b60016020528060005260406000206000915090508060000160009054906101000a900460ff16908060000160019054906101000a900460ff16905082565b33600160008273ffffffffffffffffffffffffffffffffffffffff1673ffffffffffffffffffffffffffffffffffffffff16815260200190815260200160002060000160009054906101000a900460ff1615610203576040517f08c379a00000000000000000000000000000000000000000000000000000000081526004018080602001828103825260158152602001807f656e74697479206d757374206e6f74206578697374000000000000000000000081525060200191505060405180910390fd5b6000600160003373ffffffffffffffffffffffffffffffffffffffff1673ffffffffffffffffffffffffffffffffffffffff168152602001908152602001600020905060018160000160006101000a81548160ff02191690831515021790555060008160000160016101000a81548160ff0219169083151502179055507f8c93f4b845814132a0c803baf8cfc703d9c6ebcb1fabf63613e3a6e594ae573933604051808273ffffffffffffffffffffffffffffffffffffffff1673ffffffffffffffffffffffffffffffffffffffff16815260200191505060405180910390a15050565b6000809054906101000a900473ffffffffffffffffffffffffffffffffffffffff168156fea165627a7a723058204ae3345a668f2ec8f7c3212abb590459be6d06083b78b6e6254880d12498638c0029",
  "source": "pragma solidity >=0.4.25 <0.6.0;\n\ncontract RegistryContract {\n    struct Identity {\n    bool isValue; // true when payload is stored\n    bool isRevoked; // true when it is revoked\n\t}\n\n  address public owner;\n  // key: address, value: Identity struct\n  mapping (address => Identity) public entities;\n\n  event NewEntityAdded(address sender);\n\n  modifier entityMustExist(address entity) {\n    require(entities[entity].isValue, \"entity must exist\");\n    _;\n  }\n\n  modifier entityMustNotExist(address entity) {\n    require(!entities[entity].isValue, \"entity must not exist\");\n    _;\n  }\n\n  constructor() public {\n\t\towner = msg.sender;\n\t}\n\n  function storeNewEntity() public\n  entityMustNotExist(msg.sender) {\n    Identity storage i = entities[msg.sender];\n    i.isValue = true;\n    i.isRevoked = false;\n\n    emit NewEntityAdded(msg.sender);\n  }\n}",
  "sourcePath": "/home/mrkazawa/Projects/auth_contract_use_case/contracts/RegistryContract.sol",
  "compiler": {
    "name": "solc",
    "version": "0.5.8+commit.23d335f2.Emscripten.clang"
  },
  "schemaVersion": "3.0.11",
  "updatedAt": "2019-11-26T02:32:26.368Z",
  "devdoc": {
    "methods": {}
  },
  "userdoc": {
    "methods": {}
  }
}