{
  "contractName": "RegistryContract",
  "abi": [
    {
      "constant": true,
      "inputs": [
        {
          "name": "",
          "type": "bytes32"
        }
      ],
      "name": "payloads",
      "outputs": [
        {
          "name": "source",
          "type": "address"
        },
        {
          "name": "target",
          "type": "address"
        },
        {
          "name": "verifier",
          "type": "address"
        },
        {
          "name": "isValue",
          "type": "bool"
        },
        {
          "name": "isVerified",
          "type": "bool"
        }
      ],
      "payable": false,
      "stateMutability": "view",
      "type": "function"
    },
    {
      "constant": true,
      "inputs": [],
      "name": "owner",
      "outputs": [
        {
          "name": "",
          "type": "address"
        }
      ],
      "payable": false,
      "stateMutability": "view",
      "type": "function"
    },
    {
      "inputs": [],
      "payable": false,
      "stateMutability": "nonpayable",
      "type": "constructor"
    },
    {
      "anonymous": false,
      "inputs": [
        {
          "indexed": false,
          "name": "sender",
          "type": "address"
        },
        {
          "indexed": false,
          "name": "payloadHash",
          "type": "bytes32"
        }
      ],
      "name": "NewPayloadAdded",
      "type": "event"
    },
    {
      "anonymous": false,
      "inputs": [
        {
          "indexed": false,
          "name": "sender",
          "type": "address"
        },
        {
          "indexed": false,
          "name": "gateway",
          "type": "address"
        }
      ],
      "name": "GatewayVerified",
      "type": "event"
    },
    {
      "anonymous": false,
      "inputs": [
        {
          "indexed": false,
          "name": "sender",
          "type": "address"
        },
        {
          "indexed": false,
          "name": "gateway",
          "type": "address"
        },
        {
          "indexed": false,
          "name": "device",
          "type": "address"
        }
      ],
      "name": "DeviceVerified",
      "type": "event"
    },
    {
      "anonymous": false,
      "inputs": [
        {
          "indexed": false,
          "name": "sender",
          "type": "address"
        },
        {
          "indexed": false,
          "name": "gateway",
          "type": "address"
        }
      ],
      "name": "GatewayRevoked",
      "type": "event"
    },
    {
      "anonymous": false,
      "inputs": [
        {
          "indexed": false,
          "name": "sender",
          "type": "address"
        },
        {
          "indexed": false,
          "name": "device",
          "type": "address"
        }
      ],
      "name": "DeviceRevoked",
      "type": "event"
    },
    {
      "constant": false,
      "inputs": [
        {
          "name": "payloadHash",
          "type": "bytes32"
        },
        {
          "name": "target",
          "type": "address"
        },
        {
          "name": "verifier",
          "type": "address"
        }
      ],
      "name": "storeAuthNPayload",
      "outputs": [],
      "payable": false,
      "stateMutability": "nonpayable",
      "type": "function"
    },
    {
      "constant": false,
      "inputs": [
        {
          "name": "payloadHash",
          "type": "bytes32"
        },
        {
          "name": "routerIP",
          "type": "bytes32"
        }
      ],
      "name": "verifyAuthNGateway",
      "outputs": [],
      "payable": false,
      "stateMutability": "nonpayable",
      "type": "function"
    },
    {
      "constant": false,
      "inputs": [
        {
          "name": "payloadHash",
          "type": "bytes32"
        }
      ],
      "name": "verifyAuthNDevice",
      "outputs": [],
      "payable": false,
      "stateMutability": "nonpayable",
      "type": "function"
    },
    {
      "constant": false,
      "inputs": [
        {
          "name": "payloadHash",
          "type": "bytes32"
        },
        {
          "name": "gateway",
          "type": "address"
        }
      ],
      "name": "deleteTrustedGateway",
      "outputs": [],
      "payable": false,
      "stateMutability": "nonpayable",
      "type": "function"
    },
    {
      "constant": false,
      "inputs": [
        {
          "name": "payloadHash",
          "type": "bytes32"
        },
        {
          "name": "device",
          "type": "address"
        }
      ],
      "name": "deleteTrustedDevice",
      "outputs": [],
      "payable": false,
      "stateMutability": "nonpayable",
      "type": "function"
    },
    {
      "constant": true,
      "inputs": [
        {
          "name": "gateway",
          "type": "address"
        }
      ],
      "name": "isTrustedGateway",
      "outputs": [
        {
          "name": "",
          "type": "bool"
        }
      ],
      "payable": false,
      "stateMutability": "view",
      "type": "function"
    },
    {
      "constant": true,
      "inputs": [
        {
          "name": "device",
          "type": "address"
        }
      ],
      "name": "isTrustedDevice",
      "outputs": [
        {
          "name": "",
          "type": "bool"
        }
      ],
      "payable": false,
      "stateMutability": "view",
      "type": "function"
    },
    {
      "constant": true,
      "inputs": [
        {
          "name": "payloadHash",
          "type": "bytes32"
        }
      ],
      "name": "getPayloadDetail",
      "outputs": [
        {
          "name": "",
          "type": "address"
        },
        {
          "name": "",
          "type": "address"
        },
        {
          "name": "",
          "type": "address"
        },
        {
          "name": "",
          "type": "bool"
        },
        {
          "name": "",
          "type": "bool"
        }
      ],
      "payable": false,
      "stateMutability": "view",
      "type": "function"
    },
    {
      "constant": true,
      "inputs": [
        {
          "name": "gateway",
          "type": "address"
        }
      ],
      "name": "getGatewayIP",
      "outputs": [
        {
          "name": "",
          "type": "bytes32"
        }
      ],
      "payable": false,
      "stateMutability": "view",
      "type": "function"
    }
  ],
  "bytecode": "0x608060405234801561001057600080fd5b50336000806101000a81548173ffffffffffffffffffffffffffffffffffffffff021916908373ffffffffffffffffffffffffffffffffffffffff160217905550611a3f806100606000396000f3fe608060405234801561001057600080fd5b50600436106100a95760003560e01c80634994bd75116100715780634994bd751461029a57806358722672146102f65780637ed56410146103e05780638da5cb5b1461043c5780639ebb7e4214610486578063fbcd5dad146104de576100a9565b806301407778146100ae5780630a053942146101985780630ac00d51146101e6578063351a8671146102145780633c0aaa2a1461024c575b600080fd5b6100da600480360360208110156100c457600080fd5b810190808035906020019092919050505061054c565b604051808673ffffffffffffffffffffffffffffffffffffffff1673ffffffffffffffffffffffffffffffffffffffff1681526020018573ffffffffffffffffffffffffffffffffffffffff1673ffffffffffffffffffffffffffffffffffffffff1681526020018473ffffffffffffffffffffffffffffffffffffffff1673ffffffffffffffffffffffffffffffffffffffff16815260200183151515158152602001821515151581526020019550505050505060405180910390f35b6101e4600480360360408110156101ae57600080fd5b8101908080359060200190929190803573ffffffffffffffffffffffffffffffffffffffff169060200190929190505050610654565b005b610212600480360360208110156101fc57600080fd5b8101908080359060200190929190505050610961565b005b61024a6004803603604081101561022a57600080fd5b810190808035906020019092919080359060200190929190505050610ead565b005b6102986004803603604081101561026257600080fd5b8101908080359060200190929190803573ffffffffffffffffffffffffffffffffffffffff169060200190929190505050611230565b005b6102dc600480360360208110156102b057600080fd5b81019080803573ffffffffffffffffffffffffffffffffffffffff1690602001909291905050506115d4565b604051808215151515815260200191505060405180910390f35b6103226004803603602081101561030c57600080fd5b8101908080359060200190929190505050611623565b604051808673ffffffffffffffffffffffffffffffffffffffff1673ffffffffffffffffffffffffffffffffffffffff1681526020018573ffffffffffffffffffffffffffffffffffffffff1673ffffffffffffffffffffffffffffffffffffffff1681526020018473ffffffffffffffffffffffffffffffffffffffff1673ffffffffffffffffffffffffffffffffffffffff16815260200183151515158152602001821515151581526020019550505050505060405180910390f35b610422600480360360208110156103f657600080fd5b81019080803573ffffffffffffffffffffffffffffffffffffffff1690602001909291905050506116d3565b604051808215151515815260200191505060405180910390f35b610444611781565b604051808273ffffffffffffffffffffffffffffffffffffffff1673ffffffffffffffffffffffffffffffffffffffff16815260200191505060405180910390f35b6104c86004803603602081101561049c57600080fd5b81019080803573ffffffffffffffffffffffffffffffffffffffff1690602001909291905050506117a6565b6040518082815260200191505060405180910390f35b61054a600480360360608110156104f457600080fd5b8101908080359060200190929190803573ffffffffffffffffffffffffffffffffffffffff169060200190929190803573ffffffffffffffffffffffffffffffffffffffff1690602001909291905050506117ef565b005b60008060008060006001600087815260200190815260200160002060000160009054906101000a900473ffffffffffffffffffffffffffffffffffffffff166001600088815260200190815260200160002060010160009054906101000a900473ffffffffffffffffffffffffffffffffffffffff166001600089815260200190815260200160002060020160009054906101000a900473ffffffffffffffffffffffffffffffffffffffff16600160008a815260200190815260200160002060020160149054906101000a900460ff16600160008b815260200190815260200160002060020160159054906101000a900460ff169450945094509450945091939590929450565b816001600082815260200190815260200160002060020160149054906101000a900460ff166106eb576040517f08c379a00000000000000000000000000000000000000000000000000000000081526004018080602001828103825260128152602001807f7061796c6f6164206d757374206578697374000000000000000000000000000081525060200191505060405180910390fd5b823373ffffffffffffffffffffffffffffffffffffffff166001600083815260200190815260200160002060000160009054906101000a900473ffffffffffffffffffffffffffffffffffffffff1673ffffffffffffffffffffffffffffffffffffffff16146107c3576040517f08c379a00000000000000000000000000000000000000000000000000000000081526004018080602001828103825260188152602001807f6f6e6c7920666f72206f726967696e616c20736f75726365000000000000000081525060200191505060405180910390fd5b826000801b600260008373ffffffffffffffffffffffffffffffffffffffff1673ffffffffffffffffffffffffffffffffffffffff16815260200190815260200160002054141561087c576040517f08c379a000000000000000000000000000000000000000000000000000000000815260040180806020018281038252601d8152602001807f67617465776179206d757374206265207472757374656420666972737400000081525060200191505060405180910390fd5b6000801b600260008673ffffffffffffffffffffffffffffffffffffffff1673ffffffffffffffffffffffffffffffffffffffff168152602001908152602001600020819055507f09ef0168875f40e873fc430d769df0f7c752f279badb83a22944559b17fb51163385604051808373ffffffffffffffffffffffffffffffffffffffff1673ffffffffffffffffffffffffffffffffffffffff1681526020018273ffffffffffffffffffffffffffffffffffffffff1673ffffffffffffffffffffffffffffffffffffffff1681526020019250505060405180910390a15050505050565b806001600082815260200190815260200160002060020160149054906101000a900460ff166109f8576040517f08c379a00000000000000000000000000000000000000000000000000000000081526004018080602001828103825260128152602001807f7061796c6f6164206d757374206578697374000000000000000000000000000081525060200191505060405180910390fd5b816001600082815260200190815260200160002060020160159054906101000a900460ff1615610a90576040517f08c379a00000000000000000000000000000000000000000000000000000000081526004018080602001828103825260198152602001807f7061796c6f6164206d757374206e6f742076657269666965640000000000000081525060200191505060405180910390fd5b823373ffffffffffffffffffffffffffffffffffffffff166001600083815260200190815260200160002060020160009054906101000a900473ffffffffffffffffffffffffffffffffffffffff1673ffffffffffffffffffffffffffffffffffffffff1614610b68576040517f08c379a00000000000000000000000000000000000000000000000000000000081526004018080602001828103825260178152602001807f6f6e6c7920666f722076616c696420766572696669657200000000000000000081525060200191505060405180910390fd5b6001600085815260200190815260200160002060000160009054906101000a900473ffffffffffffffffffffffffffffffffffffffff166000801b600260008373ffffffffffffffffffffffffffffffffffffffff1673ffffffffffffffffffffffffffffffffffffffff168152602001908152602001600020541415610c57576040517f08c379a000000000000000000000000000000000000000000000000000000000815260040180806020018281038252601d8152602001807f67617465776179206d757374206265207472757374656420666972737400000081525060200191505060405180910390fd5b6001600086815260200190815260200160002060000160009054906101000a900473ffffffffffffffffffffffffffffffffffffffff16600360006001600089815260200190815260200160002060010160009054906101000a900473ffffffffffffffffffffffffffffffffffffffff1673ffffffffffffffffffffffffffffffffffffffff1673ffffffffffffffffffffffffffffffffffffffff16815260200190815260200160002060006101000a81548173ffffffffffffffffffffffffffffffffffffffff021916908373ffffffffffffffffffffffffffffffffffffffff160217905550600180600087815260200190815260200160002060020160156101000a81548160ff0219169083151502179055507fcc85eae6f9dabfeec3f785066c74832b1a12f2e8e9d66e869aba65c0ed1009e6336001600088815260200190815260200160002060000160009054906101000a900473ffffffffffffffffffffffffffffffffffffffff166001600089815260200190815260200160002060010160009054906101000a900473ffffffffffffffffffffffffffffffffffffffff16604051808473ffffffffffffffffffffffffffffffffffffffff1673ffffffffffffffffffffffffffffffffffffffff1681526020018373ffffffffffffffffffffffffffffffffffffffff1673ffffffffffffffffffffffffffffffffffffffff1681526020018273ffffffffffffffffffffffffffffffffffffffff1673ffffffffffffffffffffffffffffffffffffffff168152602001935050505060405180910390a15050505050565b816001600082815260200190815260200160002060020160149054906101000a900460ff16610f44576040517f08c379a00000000000000000000000000000000000000000000000000000000081526004018080602001828103825260128152602001807f7061796c6f6164206d757374206578697374000000000000000000000000000081525060200191505060405180910390fd5b826001600082815260200190815260200160002060020160159054906101000a900460ff1615610fdc576040517f08c379a00000000000000000000000000000000000000000000000000000000081526004018080602001828103825260198152602001807f7061796c6f6164206d757374206e6f742076657269666965640000000000000081525060200191505060405180910390fd5b833373ffffffffffffffffffffffffffffffffffffffff166001600083815260200190815260200160002060020160009054906101000a900473ffffffffffffffffffffffffffffffffffffffff1673ffffffffffffffffffffffffffffffffffffffff16146110b4576040517f08c379a00000000000000000000000000000000000000000000000000000000081526004018080602001828103825260178152602001807f6f6e6c7920666f722076616c696420766572696669657200000000000000000081525060200191505060405180910390fd5b83600260006001600089815260200190815260200160002060010160009054906101000a900473ffffffffffffffffffffffffffffffffffffffff1673ffffffffffffffffffffffffffffffffffffffff1673ffffffffffffffffffffffffffffffffffffffff16815260200190815260200160002081905550600180600087815260200190815260200160002060020160156101000a81548160ff0219169083151502179055507fd1f64800bec23cfb760d66f39be69f63fadfe1f4eeff95fdbd83ff858763659f336001600088815260200190815260200160002060010160009054906101000a900473ffffffffffffffffffffffffffffffffffffffff16604051808373ffffffffffffffffffffffffffffffffffffffff1673ffffffffffffffffffffffffffffffffffffffff1681526020018273ffffffffffffffffffffffffffffffffffffffff1673ffffffffffffffffffffffffffffffffffffffff1681526020019250505060405180910390a15050505050565b816001600082815260200190815260200160002060020160149054906101000a900460ff166112c7576040517f08c379a00000000000000000000000000000000000000000000000000000000081526004018080602001828103825260128152602001807f7061796c6f6164206d757374206578697374000000000000000000000000000081525060200191505060405180910390fd5b823373ffffffffffffffffffffffffffffffffffffffff166001600083815260200190815260200160002060000160009054906101000a900473ffffffffffffffffffffffffffffffffffffffff1673ffffffffffffffffffffffffffffffffffffffff161461139f576040517f08c379a00000000000000000000000000000000000000000000000000000000081526004018080602001828103825260188152602001807f6f6e6c7920666f72206f726967696e616c20736f75726365000000000000000081525060200191505060405180910390fd5b826000801b60026000600360008573ffffffffffffffffffffffffffffffffffffffff1673ffffffffffffffffffffffffffffffffffffffff16815260200190815260200160002060009054906101000a900473ffffffffffffffffffffffffffffffffffffffff1673ffffffffffffffffffffffffffffffffffffffff1673ffffffffffffffffffffffffffffffffffffffff1681526020019081526020016000205414156114b7576040517f08c379a000000000000000000000000000000000000000000000000000000000815260040180806020018281038252601c8152602001807f646576696365206d75737420626520747275737465642066697273740000000081525060200191505060405180910390fd5b6000600360008673ffffffffffffffffffffffffffffffffffffffff1673ffffffffffffffffffffffffffffffffffffffff16815260200190815260200160002060006101000a81548173ffffffffffffffffffffffffffffffffffffffff021916908373ffffffffffffffffffffffffffffffffffffffff1602179055507fdd8ca0d07f8d860459d040ce2a192a34442e88535b131641d6b29cb06808c52d3385604051808373ffffffffffffffffffffffffffffffffffffffff1673ffffffffffffffffffffffffffffffffffffffff1681526020018273ffffffffffffffffffffffffffffffffffffffff1673ffffffffffffffffffffffffffffffffffffffff1681526020019250505060405180910390a15050505050565b60008060001b600260008473ffffffffffffffffffffffffffffffffffffffff1673ffffffffffffffffffffffffffffffffffffffff1681526020019081526020016000205414159050919050565b60016020528060005260406000206000915090508060000160009054906101000a900473ffffffffffffffffffffffffffffffffffffffff16908060010160009054906101000a900473ffffffffffffffffffffffffffffffffffffffff16908060020160009054906101000a900473ffffffffffffffffffffffffffffffffffffffff16908060020160149054906101000a900460ff16908060020160159054906101000a900460ff16905085565b60008060001b60026000600360008673ffffffffffffffffffffffffffffffffffffffff1673ffffffffffffffffffffffffffffffffffffffff16815260200190815260200160002060009054906101000a900473ffffffffffffffffffffffffffffffffffffffff1673ffffffffffffffffffffffffffffffffffffffff1673ffffffffffffffffffffffffffffffffffffffff1681526020019081526020016000205414159050919050565b6000809054906101000a900473ffffffffffffffffffffffffffffffffffffffff1681565b6000600260008373ffffffffffffffffffffffffffffffffffffffff1673ffffffffffffffffffffffffffffffffffffffff168152602001908152602001600020549050919050565b826001600082815260200190815260200160002060020160149054906101000a900460ff1615611887576040517f08c379a00000000000000000000000000000000000000000000000000000000081526004018080602001828103825260168152602001807f7061796c6f6164206d757374206e6f742065786973740000000000000000000081525060200191505060405180910390fd5b6000600160008681526020019081526020016000209050338160000160006101000a81548173ffffffffffffffffffffffffffffffffffffffff021916908373ffffffffffffffffffffffffffffffffffffffff160217905550838160010160006101000a81548173ffffffffffffffffffffffffffffffffffffffff021916908373ffffffffffffffffffffffffffffffffffffffff160217905550828160020160006101000a81548173ffffffffffffffffffffffffffffffffffffffff021916908373ffffffffffffffffffffffffffffffffffffffff16021790555060018160020160146101000a81548160ff02191690831515021790555060008160020160156101000a81548160ff0219169083151502179055507fefb8f19edf8a939f03158d3ad06f023bd1ccb83bacc5c044fbeb13c4a898ab433386604051808373ffffffffffffffffffffffffffffffffffffffff1673ffffffffffffffffffffffffffffffffffffffff1681526020018281526020019250505060405180910390a1505050505056fea165627a7a723058200eb0ae12734d4b824db16e4a8d4216b46ae9384468efc65ddcd972f995277b650029",
  "source": "pragma solidity >=0.4.25 <0.6.0;\n\ncontract RegistryContract {\n    struct AuthenticationPayload {\n        address source; // the sender of the authentication payload\n\t\taddress target; // the authentication target\n\t\taddress verifier; // the verifier of the target\n        bool isValue; // true when payload is stored\n        bool isVerified; // true when it has been verified by verifier\n\t}\n\n    address public owner;\n    // key: payloadHash, value: Payload struct\n    mapping (bytes32 => AuthenticationPayload) public payloads;\n    // key: gateway address, value: reachable IP if trusted (not trusted will be 0x0)\n    mapping (address => bytes32) trustedGateways;\n    // key: device address, value: current list of gateway address\n    mapping (address => address) trustedDevices;\n\n    event NewPayloadAdded(address sender, bytes32 payloadHash);\n    event GatewayVerified(address sender, address gateway);\n    event DeviceVerified(address sender, address gateway, address device);\n    event GatewayRevoked(address sender, address gateway);\n    event DeviceRevoked(address sender, address device);\n\n    modifier payloadMustExist(bytes32 payloadHash) {\n        require(payloads[payloadHash].isValue, \"payload must exist\");\n        _;\n    }\n\n    modifier payloadMustNotExist(bytes32 payloadHash) {\n        require(!payloads[payloadHash].isValue, \"payload must not exist\");\n        _;\n    }\n\n    modifier payloadMustNotVerified(bytes32 payloadHash) {\n        require(!payloads[payloadHash].isVerified, \"payload must not verified\");\n        _;\n    }\n\n    modifier onlyForVerifier(bytes32 payloadHash) {\n        require(payloads[payloadHash].verifier == msg.sender, \"only for valid verifier\");\n        _;\n    }\n\n    modifier gatewayMustTrusted(address gateway) {\n        require(trustedGateways[gateway] != 0, \"gateway must be trusted first\");\n        _;\n    }\n\n    modifier deviceMustTrusted(address device) {\n        require(trustedGateways[trustedDevices[device]] != 0, \"device must be trusted first\");\n        _;\n    }\n\n    modifier onlyForSource(bytes32 payloadHash) {\n        require(payloads[payloadHash].source == msg.sender, \"only for original source\");\n        _;\n    }\n\n    constructor() public {\n\t\towner = msg.sender;\n\t}\n\n    function storeAuthNPayload(bytes32 payloadHash, address target, address verifier) public\n    payloadMustNotExist(payloadHash) {\n        AuthenticationPayload storage p = payloads[payloadHash];\n        p.source = msg.sender;\n        p.target = target;\n        p.verifier = verifier;\n        p.isValue = true;\n        p.isVerified = false;\n\n        emit NewPayloadAdded(msg.sender, payloadHash);\n    }\n\n    function verifyAuthNGateway(bytes32 payloadHash, bytes32 routerIP) public\n    payloadMustExist(payloadHash)\n    payloadMustNotVerified(payloadHash)\n    onlyForVerifier(payloadHash) {\n        trustedGateways[payloads[payloadHash].target] = routerIP;\n        payloads[payloadHash].isVerified = true;\n\n        emit GatewayVerified(msg.sender, payloads[payloadHash].target);\n    }\n\n    function verifyAuthNDevice(bytes32 payloadHash) public\n    payloadMustExist(payloadHash)\n    payloadMustNotVerified(payloadHash)\n    onlyForVerifier(payloadHash)\n    gatewayMustTrusted(payloads[payloadHash].source) {\n        trustedDevices[payloads[payloadHash].target] = payloads[payloadHash].source;\n        payloads[payloadHash].isVerified = true;\n\n        emit DeviceVerified(msg.sender, payloads[payloadHash].source, payloads[payloadHash].target);\n    }\n\n    function deleteTrustedGateway(bytes32 payloadHash, address gateway) public\n    payloadMustExist(payloadHash)\n    onlyForSource(payloadHash)\n    gatewayMustTrusted(gateway) {\n        trustedGateways[gateway] = 0;\n\n        emit GatewayRevoked(msg.sender, gateway);\n    }\n\n    function deleteTrustedDevice(bytes32 payloadHash, address device) public\n    payloadMustExist(payloadHash)\n    onlyForSource(payloadHash)\n    deviceMustTrusted(device) {\n       trustedDevices[device] = address(0);\n\n       emit DeviceRevoked(msg.sender, device);\n    }\n\n    function isTrustedGateway(address gateway) public view\n    returns (bool) {\n        return (trustedGateways[gateway] != 0);\n    }\n\n    function isTrustedDevice(address device) public view\n    returns (bool) {\n        return (trustedGateways[trustedDevices[device]] != 0);\n    }\n\n    function getPayloadDetail(bytes32 payloadHash) public view\n    returns (address, address, address, bool, bool) {\n        return (payloads[payloadHash].source,\n        payloads[payloadHash].target,\n        payloads[payloadHash].verifier,\n        payloads[payloadHash].isValue,\n        payloads[payloadHash].isVerified);\n    }\n\n    function getGatewayIP(address gateway) public view\n    returns (bytes32) {\n        return trustedGateways[gateway];\n    }\n}",
  "sourcePath": "/home/mrkazawa/Projects/iot_domain_auth/contracts/RegistryContract.sol",
  "compiler": {
    "name": "solc",
    "version": "0.5.8+commit.23d335f2.Emscripten.clang"
  },
  "schemaVersion": "3.0.11",
  "updatedAt": "2019-11-08T09:02:40.316Z",
  "devdoc": {
    "methods": {}
  },
  "userdoc": {
    "methods": {}
  }
}