{
  "contractName": "RoosterContract",
  "abi": [
    {
      "constant": true,
      "inputs": [],
      "name": "owner",
      "outputs": [
        {
          "name": "",
          "type": "address"
        }
      ],
      "payable": false,
      "stateMutability": "view",
      "type": "function"
    },
    {
      "inputs": [],
      "payable": false,
      "stateMutability": "nonpayable",
      "type": "constructor"
    },
    {
      "constant": false,
      "inputs": [
        {
          "name": "initial",
          "type": "uint256"
        }
      ],
      "name": "getValue",
      "outputs": [
        {
          "name": "",
          "type": "uint256"
        }
      ],
      "payable": false,
      "stateMutability": "nonpayable",
      "type": "function"
    }
  ],
  "bytecode": "0x608060405234801561001057600080fd5b50336000806101000a81548173ffffffffffffffffffffffffffffffffffffffff021916908373ffffffffffffffffffffffffffffffffffffffff16021790555061011c806100606000396000f3fe6080604052348015600f57600080fd5b506004361060325760003560e01c80630ff4c9161460375780638da5cb5b146076575b600080fd5b606060048036036020811015604b57600080fd5b810190808035906020019092919050505060be565b6040518082815260200191505060405180910390f35b607c60cb565b604051808273ffffffffffffffffffffffffffffffffffffffff1673ffffffffffffffffffffffffffffffffffffffff16815260200191505060405180910390f35b6000609682019050919050565b6000809054906101000a900473ffffffffffffffffffffffffffffffffffffffff168156fea165627a7a72305820495e1d6a9249bc72d22e0c8ab432dde61b7983872c152dd50b8088e6035aa22f0029",
  "source": "pragma solidity >=0.4.25 <0.6.0;\n\ncontract RoosterContract {\n    struct payload {\n\t\tbytes32 IPFShash;\n\t\taddress initiator;\n\t\taddress verifier;\n\t}\n\n    struct device {\n        address devicesAddr;\n        bool status;\n    }\n\n    address public owner;\n    mapping (bytes32 => payload) payloads;\n    device[] devices;\n    mapping (address => device[]) trustedGateways;\n\n    constructor() public {\n\t\towner = msg.sender;\n\t}\n\n    /*\n    function authNGateway(uint IPFS_hash, address ISP_AS_address) public returns(uint) {\n        Network n = Network(ISP_AS_address);\n        return n.doAuthN(IPFS_hash);\n    }*/\n\n    function getValue(uint initial) public returns(uint) {\n        return initial + 150;\n    }\n\n}",
  "sourcePath": "/home/mrkazawa/Projects/domain_authn/contracts/RoosterContract.sol",
  "compiler": {
    "name": "solc",
    "version": "0.5.8+commit.23d335f2.Emscripten.clang"
  },
  "schemaVersion": "3.0.11",
  "updatedAt": "2019-07-22T09:07:23.445Z",
  "devdoc": {
    "methods": {}
  },
  "userdoc": {
    "methods": {}
  }
}